:100000000C942A001895000018950000189500001F
:10001000189500001895000018950000189500002C
:10002000189500001895000018950000189500001C
:10003000189500001895000018950000189500000C
:1000400018950000189500001895000018950000FC
:10005000189500008FE58DBFC8E3E0E24E2E84E0E6
:100060008EBFD4E0F4E05F2EA89584B7082E877F7A
:1000700084BF88E1992781BD91BDEEEFF3E0A0E652
:10008000B0E088278D933197E9F7662483E886B935
:1000900080EC87B98FEF87BB8FEF81BB379A0E94C7
:1000A0001E010E9459000E94F2000C944F00F89427
:1000B000FFCF07B1007E026007B90E944B01A0E6A6
:1000C000B0E08D939C9307B1007E056007B90E9454
:1000D0004B01A2E6B0E08D939C93E2E6F0E0D19074
:1000E000E080FF2400270E940C020E94AE012F93A3
:1000F0003F934F935F93E0E6F0E0D190E080FF24E0
:1001000000270E940C025F914F913F912F910E9416
:100110009002EDE0F0E0A4E6B0E00E946701E4EFB9
:10012000F5E00E94ED02E4E6F0E00E94A4010E94E6
:100130003902EDE0F0E0A4E6B0E00E946701E4E6F9
:10014000F0E00E94A401E8EFF5E00E94ED020E94B9
:100150008B0118F011F00C94AF000C94BA008AE0F7
:1001600080936B00E4E6F0E00E94B401A8E6B0E002
:10017000DD92EC92E4E6F0E00E94A401E8EFF5E005
:100180000E94ED020E948B0110F00C94F2008BE0B3
:1001900080936B00ECEFF5E00E94ED02E4E6F0E006
:1001A0000E94A4010E943902EDE0F0E0A4E6B0E074
:1001B0000E946701E0E0F6E00E94ED02E4E6F0E074
:1001C0000E94A4010E949F02EDE0F0E0A4E6B0E0EE
:1001D0000E946701E4E6F0E00E94B401A8E6B0E006
:1001E000DD92EC9277E078BB8CE080936A000E940D
:1001F0001E017BE078BB009168004AE00E946D011F
:10020000AAE6B0E08C930E941E017DE078BB0091CD
:1002100068004AE00E946D01AAE6B0E00C930E94DB
:100220001E017EE078BB80916B0080936A000E9483
:100230001E017FE078BB80E080936A00E8E5F2E091
:10024000AAE6B0E08C919927A2E3B0E00E94640195
:1002500084E090E00E943C013F065B4F666D7D07A5
:100260007F6F004039003197F1F70895689462F884
:100270000895E89462F80895EF93FF93EE27E82B32
:10028000E92B31F0EAEFF0E03197F1F70197D1F780
:10029000FF91EF910895369A3699FECF369A3699A6
:1002A000FECF84B195B10895C89531960020089588
:1002B00091E005C092E003C094E001C098E0F4DF53
:1002C0000D929A95E1F70895E80FF91FF1CF94E0A8
:1002D00081918D939A95E1F70895FF93881BF9E03A
:1002E000001FFA9511F4FF910895881F841B18F4DC
:1002F000840F8894F5CF0894F3CFB7FE089590E863
:10030000B91611F4D0FE08959FEFD91AE90AF90A37
:1003100009F4039508950F928F939F93D216E306E5
:10032000F4060FB680E890E8802795270FBE89076E
:1003300039F00FB6892B87FD02C081E008260FBE79
:100340009F918F910F900895D190E190F19001913C
:10035000089521913191419151910895502F2D2D62
:100360003E2D4F2D612F0895EFDF992711278F2DF7
:10037000880F80E8F82A802F881F08F41FEF41F0CB
:100380008F57082F07FD04C0003240F08FEF01C0E7
:100390008827982FD82EE82EF82E09C08FE1801BD1
:1003A000082FF694E794D79497950A95D1F71123DF
:1003B00051F09095D094E094F09481E0980F8827C4
:1003C000D81EE81EF81E0F2DFE2CED2CD92E0895F8
:1003D000D094E094F09491E0D90E9927E91EF91E8B
:1003E00010950895652F90E8440F551F5927990FD0
:1003F00047956078102F90E8FF0C001F0927990F90
:10040000F794107800380895FF0C90E89027110FAA
:100410009795F794092F08951127BD2CDE2CEF2C0A
:10042000F02E0EE1FF2039F4FE2CED2CDB2CBB244A
:100430000850C2F752C032F00A95BB0CDD1CEE1C0E
:10044000FF1CF9CF5ADFE0CF2DEC3CEC4CEC5DE328
:1004500066270FC079DF82DFDD24EE2490E8F92ED5
:100460000FE307C076DF05C02227332740E251E4BF
:100470006627552351F1002381F1B4DF71F116276E
:10048000005850580894050B18F407FD03C025C008
:1004900007FD23C0469537952795F694E794D794A2
:1004A00022D0FF202AF0DD0CEE1CFF1C015073F05F
:1004B0009D2D969548F0DD203AF4EE202AF491E047
:1004C000D90E9927E91EF91E9FCF07C09FE7092F74
:1004D000F92A9FEFD92EE92E0895DD24EE24FF247A
:1004E0000027112708959F929924AA24BB2488E10C
:1004F000D216E306F40628F0D21AE30AF40A0894A6
:1005000001C08894991CAA1CBB1CDD0CEE1CFF1CAE
:100510008A9571F7D92CEA2CFB2C9F90089519DF4E
:1005200061DF503829F090E869270CC00AF045D007
:100530006BCF5FE322273327442701C00ADF52DF56
:100540005038B1F3003899F3902F951B8BF312F4C8
:1005500034D0FACF983118F0222733274427983027
:1005600028F0232F342F44279850F9CF992329F0CE
:100570004695379527959A95D9F7912F962742F06A
:1005800014D0B0F6F794E794D7940F5F8BF69ECF14
:1005900010D051F008F41CDFFF2052F2DD0CEE1CED
:1005A000FF1C0150CBF792CF98CFD20EE31EF41E62
:1005B0000895D21AE30AF40A0895DF92EF92FF92A7
:1005C0000F931F93D22EE32EF42E052F162F6F912B
:1005D0005F914F913F912F9108950E945401202DDA
:1005E0000E945401302D0E945401402D0E9454015C
:1005F000502D08950000804000000000000080BFE2
:040600000000803F37
:00000001FF
